:0300000002059165
:0C059100787FE4F6D8FD75812002027A24
:1004290054656D703A20002E0030004320200048AA
:10043900656174696E673A204F4E200048656174A2
:10044900696E673A204F46460054656D70204572C3
:10045900726F722020202000436865636B2053650A
:070469006E736F722020008A
:10027A00D200120470D2911203C18E088F09E509C7
:10028A0064197004E50864FC7003020330C3E509CD
:10029A009410E508648094A74006C291C2008011B8
:1002AA00C3E5099428E508648094A35004D291D246
:1002BA00007F8012056D7BFF7A047929120528AE2A
:1002CA0008AF097C007D641201E11203567BFF7AB4
:1002DA00047930120528AE08AF097C007D6412014A
:1002EA00E1C3ED940AEC6480948050097BFF7A04A0
:1002FA007932120528AE08AF097C007D641201E14B
:10030A00AE04AF051203567BFF7A0479341205282E
:10031A007FC012056D7BFF3000067A047938801F92
:10032A007A04794580197F8012056D7BFF7A0479FA
:10033A00521205287FC012056D7BFF7A047961127B
:0C034A0005287F017E0012054D02028193
:10050300C201D29000C2907F507E0012059DD2900E
:100513007F087E0012059DA29092017F147E001237
:04052300059DA2018F
:0105270022B1
:0204D7008F0B89
:1004D900E4F50CC29000E50B1392907F0A7E00129E
:1004E900059DD290E50BC313F50B050CE50CC394E0
:0A04F9000840E07F057E0002059D2B
:1004A700E4F50CF50BC29000D2900030900FAF0B23
:1004B700A8077401088002C333D8FC420C7F0A7E68
:0F04C7000012059D050BE50BC3940840D8AF0C40
:0104D6002203
:1003C100120503500280167FCC1204D77F44120419
:1003D100D77FEE7E0212054D12050350057EFC7F8C
:1003E10019227FCC1204D77FBE1204D71204A78F23
:1003F1000A1204A7EFFEE50AFFEE54F86014EFF4C9
:10040100FFEEF4FEEF2401FFE43EFEC3E49FFFE4B0
:100411009EFEAD07AC06EC12010EE4FBFA79C8783A
:070421004012000312014725
:0104280022B1
:100470007F0F7E0012054D7F3812056D7F017E00D3
:1004800012054D7F0C12056D7F017E0012054D7F18
:100490000612056D7F017E0012054D7F0112056D6C
:0704A0007F027E0002054D02
:10056D00C2A0C2A18F80D2A27F017E0012054DC212
:02057D00A222B8
:10057F00D2A0C2A18F80D2A27F017E0012054DC2F0
:02058F00A222A6
:100528008B0A8A0B890CAB0AAA0BA90C1201C860AA
:1005380013050CE50C7002050B14F91201C8FF1223
:05054800057F80E222A6
:04035600AB07AA0641
:10035A00E4F510F511C3EA64809480500A7511011E
:10036A00C3E49BFBE49AFA7C007D0AAF03AE021257
:10037A0001E1ED2430FFAE100510740A2EF8A6072D
:10038A007C007D0AAF03AE021201E1AA06AB07EBBD
:10039A004A70D4E511600AAF100510740A2FF87676
:1003AA002DE510D39400400E1510740A2510F8E6B6
:0603BA00FF12057F80EB3D
:0103C000221A
:0B059D00EF1FAC0670011E4C70F62230
:10054D00E4FDFCC3ED9FEC9E5015E4FBFA0BBB00E4
:0F055D00010AEB64784A70F50DBD00010C80E4D3
:01056C00226C
:10000300EC4D6011E8497017ED33EC3304600DE4F7
:10001300FCFFFEFD22E933E8330470F80201B3125A
:10002300017E58046009E4CC24815006285009025B
:1000330001BD2840030201BAC0E0EB4A7044B98015
:1000430006D0E0FB0201A9EF4E701CBD8008EBFF58
:10005300EAFEE9FD80EBE98DF0A4FEE5F00200EC99
:10006300E9CDF9EAFEEBFFEF89F0A4FCE5F0CE89D8
:10007300F0A42EFFE435F0CD89F0A42DFEE435F095
:100083008067EF4E7005BD80D780C3EF8BF0A4ACC3
:10009300F0EE8BF0A42CFCE435F0F8EF8AF0A42CFE
:1000A300E5F038FCE433CB8DF0A42CFCE5F03BF811
:1000B300EE8AF0A42CFCE5F038F8E433CF89F0A401
:1000C3002CFCE5F038CF3400CE89F0A42FFFE5F007
:1000D3003EFEE433C98DF0A42EFEE5F039CD8AF05F
:1000E300A42FFFE5F03EFEE43DFD33D0E0FB5007D7
:1000F3000BBB000F0201BDEC2CFCEF33FFEE33FE14
:06010300ED33FD02019541
:1001090075F020800E75F010800575F0087D007E71
:10011900007F003392D530D503120217EC3340101B
:10012900EF33FFEE33FEED33FDEC33FCD5F0ED227A
:0E013900E5F0247EA2D513CC92E7CDCEFF22B6
:10014700EDD2E7CD33EC3392D524814006E4FFFEB0
:10015700FDFC22FCE4CFCECDCC24E0501174FF800F
:10016700EDC3CC13CCCD13CDCE13CECF13CF0470AC
:07017700F030D5DE02021793
:10017E00E9D2E7C933E833F892D5EDD2E7CD33ECC7
:07018E0033FC5002B2D52240
:10019500EC30E7100FBF000C0EBE00080DBD0004CB
:1001A5000BEB6014A2D5EB13FCED92E7FD2274FF77
:1001B500FCFDFEFF22E480F8A2D574FF13FC7D80D0
:0301C500E480EFE4
:1001C800BB010689828A83E0225002E722BBFE0235
:0901D800E32289828A83E4932268
:1001E100C2D5EC30E709B2D5E4C39DFDE49CFCEE39
:1001F10030E715B2D5E4C39FFFE49EFE120225C38A
:10020100E49DFDE49CFC800312022530D507C3E484
:060211009FFFE49EFE22A7
:0E021700C3E49FFFE49EFEE49DFDE49CFC22F8
:10022500BC000BBE0029EF8DF084FFADF022E4CCBD
:10023500F875F008EF2FFFEE33FEEC33FCEE9DEC86
:10024500984005FCEE9DFE0FD5F0E9E4CEFD22EDCC
:10025500F8F5F0EE8420D21CFEADF075F008EF2F16
:10026500FFED33FD4007985006D5F0F222C398FD07
:050275000FD5F0EA22A4
:00000001FF
